{
  "_format": "hh-sol-artifact-1",
  "contractName": "Hip",
  "sourceName": "contracts/Hip.sol",
  "abi": [
    {
      "inputs": [],
      "stateMutability": "payable",
      "type": "constructor"
    },
    {
      "anonymous": false,
      "inputs": [
        {
          "indexed": false,
          "internalType": "address",
          "name": "sender",
          "type": "address"
        },
        {
          "indexed": false,
          "internalType": "uint256",
          "name": "recId",
          "type": "uint256"
        },
        {
          "indexed": false,
          "internalType": "uint256",
          "name": "timestamp",
          "type": "uint256"
        },
        {
          "indexed": false,
          "internalType": "string",
          "name": "artist",
          "type": "string"
        },
        {
          "indexed": false,
          "internalType": "string",
          "name": "song",
          "type": "string"
        },
        {
          "indexed": false,
          "internalType": "string",
          "name": "link",
          "type": "string"
        },
        {
          "indexed": false,
          "internalType": "uint256",
          "name": "upvotes",
          "type": "uint256"
        },
        {
          "indexed": false,
          "internalType": "uint256",
          "name": "downvotes",
          "type": "uint256"
        }
      ],
      "name": "NewRec",
      "type": "event"
    },
    {
      "inputs": [],
      "name": "getRecs",
      "outputs": [
        {
          "components": [
            {
              "internalType": "address",
              "name": "sender",
              "type": "address"
            },
            {
              "internalType": "uint256",
              "name": "recId",
              "type": "uint256"
            },
            {
              "internalType": "uint256",
              "name": "timestamp",
              "type": "uint256"
            },
            {
              "internalType": "string",
              "name": "artist",
              "type": "string"
            },
            {
              "internalType": "string",
              "name": "song",
              "type": "string"
            },
            {
              "internalType": "string",
              "name": "link",
              "type": "string"
            },
            {
              "internalType": "uint256",
              "name": "upvotes",
              "type": "uint256"
            },
            {
              "internalType": "uint256",
              "name": "downvotes",
              "type": "uint256"
            }
          ],
          "internalType": "struct Hip.Rec[]",
          "name": "",
          "type": "tuple[]"
        }
      ],
      "stateMutability": "view",
      "type": "function"
    },
    {
      "inputs": [
        {
          "internalType": "string",
          "name": "_artist",
          "type": "string"
        },
        {
          "internalType": "string",
          "name": "_song",
          "type": "string"
        },
        {
          "internalType": "string",
          "name": "_link",
          "type": "string"
        }
      ],
      "name": "rec",
      "outputs": [],
      "stateMutability": "nonpayable",
      "type": "function"
    }
  ],
  "bytecode": "0x6080604052610018600061001d60201b6105891760201c565b610033565b6001816000016000828254019250508190555050565b610d20806100426000396000f3fe608060405234801561001057600080fd5b50600436106100365760003560e01c806337bb74d11461003b57806375efc97a14610057575b600080fd5b610055600480360381019061005091906106b8565b610075565b005b61005f6102f5565b60405161006c9190610a3d565b60405180910390f35b42600f600260003373ffffffffffffffffffffffffffffffffffffffff1673ffffffffffffffffffffffffffffffffffffffff168152602001908152602001600020546100c29190610b46565b10610102576040517f08c379a00000000000000000000000000000000000000000000000000000000081526004016100f990610a5f565b60405180910390fd5b600061010e600061059f565b905060006040518061010001604052803373ffffffffffffffffffffffffffffffffffffffff1681526020018381526020014281526020018681526020018581526020018481526020016000815260200160008152509050600181908060018154018082558091505060019003906000526020600020906008020160009091909190915060008201518160000160006101000a81548173ffffffffffffffffffffffffffffffffffffffff021916908373ffffffffffffffffffffffffffffffffffffffff160217905550602082015181600101556040820151816002015560608201518160030190805190602001906102099291906105ad565b5060808201518160040190805190602001906102269291906105ad565b5060a08201518160050190805190602001906102439291906105ad565b5060c0820151816006015560e08201518160070155505042600260003373ffffffffffffffffffffffffffffffffffffffff1673ffffffffffffffffffffffffffffffffffffffff168152602001908152602001600020819055506102a86000610589565b7faf2eb7a2b8d0120005044514d7446ba8335b3e194fc63081baf9f9bd8de52f8f3383428888886000806040516102e69897969594939291906109aa565b60405180910390a15050505050565b60606001805480602002602001604051908101604052809291908181526020016000905b828210156105805783829060005260206000209060080201604051806101000160405290816000820160009054906101000a900473ffffffffffffffffffffffffffffffffffffffff1673ffffffffffffffffffffffffffffffffffffffff1673ffffffffffffffffffffffffffffffffffffffff16815260200160018201548152602001600282015481526020016003820180546103b790610c1a565b80601f01602080910402602001604051908101604052809291908181526020018280546103e390610c1a565b80156104305780601f1061040557610100808354040283529160200191610430565b820191906000526020600020905b81548152906001019060200180831161041357829003601f168201915b5050505050815260200160048201805461044990610c1a565b80601f016020809104026020016040519081016040528092919081815260200182805461047590610c1a565b80156104c25780601f10610497576101008083540402835291602001916104c2565b820191906000526020600020905b8154815290600101906020018083116104a557829003601f168201915b505050505081526020016005820180546104db90610c1a565b80601f016020809104026020016040519081016040528092919081815260200182805461050790610c1a565b80156105545780601f1061052957610100808354040283529160200191610554565b820191906000526020600020905b81548152906001019060200180831161053757829003601f168201915b505050505081526020016006820154815260200160078201548152505081526020019060010190610319565b50505050905090565b6001816000016000828254019250508190555050565b600081600001549050919050565b8280546105b990610c1a565b90600052602060002090601f0160209004810192826105db5760008555610622565b82601f106105f457805160ff1916838001178555610622565b82800160010185558215610622579182015b82811115610621578251825591602001919060010190610606565b5b50905061062f9190610633565b5090565b5b8082111561064c576000816000905550600101610634565b5090565b600061066361065e84610ab0565b610a7f565b90508281526020810184848401111561067b57600080fd5b610686848285610bd8565b509392505050565b600082601f83011261069f57600080fd5b81356106af848260208601610650565b91505092915050565b6000806000606084860312156106cd57600080fd5b600084013567ffffffffffffffff8111156106e757600080fd5b6106f38682870161068e565b935050602084013567ffffffffffffffff81111561071057600080fd5b61071c8682870161068e565b925050604084013567ffffffffffffffff81111561073957600080fd5b6107458682870161068e565b9150509250925092565b600061075b83836108ce565b905092915050565b61076c81610b9c565b82525050565b61077b81610b9c565b82525050565b600061078c82610af0565b6107968185610b13565b9350836020820285016107a885610ae0565b8060005b858110156107e457848403895281516107c5858261074f565b94506107d083610b06565b925060208a019950506001810190506107ac565b50829750879550505050505092915050565b600061080182610afb565b61080b8185610b24565b935061081b818560208601610be7565b61082481610cd9565b840191505092915050565b600061083a82610afb565b6108448185610b35565b9350610854818560208601610be7565b61085d81610cd9565b840191505092915050565b6000610875602983610b35565b91507f77616974203135207365636f6e6473206265666f7265206d616b696e6720616e60008301527f6f746865722072656300000000000000000000000000000000000000000000006020830152604082019050919050565b6000610100830160008301516108e76000860182610763565b5060208301516108fa602086018261098c565b50604083015161090d604086018261098c565b506060830151848203606086015261092582826107f6565b9150506080830151848203608086015261093f82826107f6565b91505060a083015184820360a086015261095982826107f6565b91505060c083015161096e60c086018261098c565b5060e083015161098160e086018261098c565b508091505092915050565b61099581610bce565b82525050565b6109a481610bce565b82525050565b6000610100820190506109c0600083018b610772565b6109cd602083018a61099b565b6109da604083018961099b565b81810360608301526109ec818861082f565b90508181036080830152610a00818761082f565b905081810360a0830152610a14818661082f565b9050610a2360c083018561099b565b610a3060e083018461099b565b9998505050505050505050565b60006020820190508181036000830152610a578184610781565b905092915050565b60006020820190508181036000830152610a7881610868565b9050919050565b6000604051905081810181811067ffffffffffffffff82111715610aa657610aa5610caa565b5b8060405250919050565b600067ffffffffffffffff821115610acb57610aca610caa565b5b601f19601f8301169050602081019050919050565b6000819050602082019050919050565b600081519050919050565b600081519050919050565b6000602082019050919050565b600082825260208201905092915050565b600082825260208201905092915050565b600082825260208201905092915050565b6000610b5182610bce565b9150610b5c83610bce565b9250827fffffffffffffffffffffffffffffffffffffffffffffffffffffffffffffffff03821115610b9157610b90610c4c565b5b828201905092915050565b6000610ba782610bae565b9050919050565b600073ffffffffffffffffffffffffffffffffffffffff82169050919050565b6000819050919050565b82818337600083830152505050565b60005b83811015610c05578082015181840152602081019050610bea565b83811115610c14576000848401525b50505050565b60006002820490506001821680610c3257607f821691505b60208210811415610c4657610c45610c7b565b5b50919050565b7f4e487b7100000000000000000000000000000000000000000000000000000000600052601160045260246000fd5b7f4e487b7100000000000000000000000000000000000000000000000000000000600052602260045260246000fd5b7f4e487b7100000000000000000000000000000000000000000000000000000000600052604160045260246000fd5b6000601f19601f830116905091905056fea264697066735822122090b9f5d32c859351405e9f28d4b5f04a5225425d4f7859734481751317afaf6964736f6c63430008000033",
  "linkReferences": {},
  "deployedLinkReferences": {}
}