{
  "_format": "hh-sol-artifact-1",
  "contractName": "Hip",
  "sourceName": "contracts/Hip.sol",
  "abi": [
    {
      "inputs": [],
      "stateMutability": "payable",
      "type": "constructor"
    },
    {
      "anonymous": false,
      "inputs": [
        {
          "indexed": false,
          "internalType": "uint256",
          "name": "recId",
          "type": "uint256"
        },
        {
          "indexed": false,
          "internalType": "address",
          "name": "sender",
          "type": "address"
        },
        {
          "indexed": false,
          "internalType": "uint256",
          "name": "timestamp",
          "type": "uint256"
        },
        {
          "indexed": false,
          "internalType": "string",
          "name": "artist",
          "type": "string"
        },
        {
          "indexed": false,
          "internalType": "string",
          "name": "song",
          "type": "string"
        },
        {
          "indexed": false,
          "internalType": "string",
          "name": "link",
          "type": "string"
        },
        {
          "indexed": false,
          "internalType": "uint256",
          "name": "upvotes",
          "type": "uint256"
        },
        {
          "indexed": false,
          "internalType": "uint256",
          "name": "downvotes",
          "type": "uint256"
        }
      ],
      "name": "NewRec",
      "type": "event"
    },
    {
      "inputs": [],
      "name": "getRecs",
      "outputs": [
        {
          "components": [
            {
              "internalType": "uint256",
              "name": "recId",
              "type": "uint256"
            },
            {
              "internalType": "address",
              "name": "sender",
              "type": "address"
            },
            {
              "internalType": "uint256",
              "name": "timestamp",
              "type": "uint256"
            },
            {
              "internalType": "string",
              "name": "artist",
              "type": "string"
            },
            {
              "internalType": "string",
              "name": "song",
              "type": "string"
            },
            {
              "internalType": "string",
              "name": "link",
              "type": "string"
            },
            {
              "internalType": "uint256",
              "name": "upvotes",
              "type": "uint256"
            },
            {
              "internalType": "uint256",
              "name": "downvotes",
              "type": "uint256"
            }
          ],
          "internalType": "struct Hip.Rec[]",
          "name": "",
          "type": "tuple[]"
        }
      ],
      "stateMutability": "view",
      "type": "function"
    },
    {
      "inputs": [
        {
          "internalType": "address",
          "name": "",
          "type": "address"
        }
      ],
      "name": "lastRecTimestamp",
      "outputs": [
        {
          "internalType": "uint256",
          "name": "",
          "type": "uint256"
        }
      ],
      "stateMutability": "view",
      "type": "function"
    },
    {
      "inputs": [
        {
          "internalType": "string",
          "name": "_artist",
          "type": "string"
        },
        {
          "internalType": "string",
          "name": "_song",
          "type": "string"
        },
        {
          "internalType": "string",
          "name": "_link",
          "type": "string"
        }
      ],
      "name": "rec",
      "outputs": [],
      "stateMutability": "nonpayable",
      "type": "function"
    }
  ],
  "bytecode": "0x6080604052610018600061001d60201b6105dc1760201c565b610033565b6001816000016000828254019250508190555050565b610de3806100426000396000f3fe608060405234801561001057600080fd5b50600436106100415760003560e01c806337bb74d11461004657806375efc97a146100625780638a3777c914610080575b600080fd5b610060600480360381019061005b9190610749565b6100b0565b005b61006a610330565b6040516100779190610a3b565b60405180910390f35b61009a60048036038101906100959190610720565b6105c4565b6040516100a79190610a7d565b60405180910390f35b42600f600260003373ffffffffffffffffffffffffffffffffffffffff1673ffffffffffffffffffffffffffffffffffffffff168152602001908152602001600020546100fd9190610bf2565b1061013d576040517f08c379a000000000000000000000000000000000000000000000000000000000815260040161013490610a5d565b60405180910390fd5b600061014960006105f2565b905060006040518061010001604052808381526020013373ffffffffffffffffffffffffffffffffffffffff168152602001428152602001868152602001858152602001848152602001600081526020016000815250905060018190806001815401808255809150506001900390600052602060002090600802016000909190919091506000820151816000015560208201518160010160006101000a81548173ffffffffffffffffffffffffffffffffffffffff021916908373ffffffffffffffffffffffffffffffffffffffff160217905550604082015181600201556060820151816003019080519060200190610244929190610600565b506080820151816004019080519060200190610261929190610600565b5060a082015181600501908051906020019061027e929190610600565b5060c0820151816006015560e08201518160070155505042600260003373ffffffffffffffffffffffffffffffffffffffff1673ffffffffffffffffffffffffffffffffffffffff168152602001908152602001600020819055506102e360006105dc565b7faf16878ec495516c1e789541e0c8e399eaddde381ba664d4d79a2ac86efd59af823342888888600080604051610321989796959493929190610a98565b60405180910390a15050505050565b60606001805480602002602001604051908101604052809291908181526020016000905b828210156105bb578382906000526020600020906008020160405180610100016040529081600082015481526020016001820160009054906101000a900473ffffffffffffffffffffffffffffffffffffffff1673ffffffffffffffffffffffffffffffffffffffff1673ffffffffffffffffffffffffffffffffffffffff168152602001600282015481526020016003820180546103f290610cc6565b80601f016020809104026020016040519081016040528092919081815260200182805461041e90610cc6565b801561046b5780601f106104405761010080835404028352916020019161046b565b820191906000526020600020905b81548152906001019060200180831161044e57829003601f168201915b5050505050815260200160048201805461048490610cc6565b80601f01602080910402602001604051908101604052809291908181526020018280546104b090610cc6565b80156104fd5780601f106104d2576101008083540402835291602001916104fd565b820191906000526020600020905b8154815290600101906020018083116104e057829003601f168201915b5050505050815260200160058201805461051690610cc6565b80601f016020809104026020016040519081016040528092919081815260200182805461054290610cc6565b801561058f5780601f106105645761010080835404028352916020019161058f565b820191906000526020600020905b81548152906001019060200180831161057257829003601f168201915b505050505081526020016006820154815260200160078201548152505081526020019060010190610354565b50505050905090565b60026020528060005260406000206000915090505481565b6001816000016000828254019250508190555050565b600081600001549050919050565b82805461060c90610cc6565b90600052602060002090601f01602090048101928261062e5760008555610675565b82601f1061064757805160ff1916838001178555610675565b82800160010185558215610675579182015b82811115610674578251825591602001919060010190610659565b5b5090506106829190610686565b5090565b5b8082111561069f576000816000905550600101610687565b5090565b60006106b66106b184610b5c565b610b2b565b9050828152602081018484840111156106ce57600080fd5b6106d9848285610c84565b509392505050565b6000813590506106f081610d96565b92915050565b600082601f83011261070757600080fd5b81356107178482602086016106a3565b91505092915050565b60006020828403121561073257600080fd5b6000610740848285016106e1565b91505092915050565b60008060006060848603121561075e57600080fd5b600084013567ffffffffffffffff81111561077857600080fd5b610784868287016106f6565b935050602084013567ffffffffffffffff8111156107a157600080fd5b6107ad868287016106f6565b925050604084013567ffffffffffffffff8111156107ca57600080fd5b6107d6868287016106f6565b9150509250925092565b60006107ec838361095f565b905092915050565b6107fd81610c48565b82525050565b61080c81610c48565b82525050565b600061081d82610b9c565b6108278185610bbf565b93508360208202850161083985610b8c565b8060005b85811015610875578484038952815161085685826107e0565b945061086183610bb2565b925060208a0199505060018101905061083d565b50829750879550505050505092915050565b600061089282610ba7565b61089c8185610bd0565b93506108ac818560208601610c93565b6108b581610d85565b840191505092915050565b60006108cb82610ba7565b6108d58185610be1565b93506108e5818560208601610c93565b6108ee81610d85565b840191505092915050565b6000610906602983610be1565b91507f77616974203135207365636f6e6473206265666f7265206d616b696e6720616e60008301527f6f746865722072656300000000000000000000000000000000000000000000006020830152604082019050919050565b6000610100830160008301516109786000860182610a1d565b50602083015161098b60208601826107f4565b50604083015161099e6040860182610a1d565b50606083015184820360608601526109b68282610887565b915050608083015184820360808601526109d08282610887565b91505060a083015184820360a08601526109ea8282610887565b91505060c08301516109ff60c0860182610a1d565b5060e0830151610a1260e0860182610a1d565b508091505092915050565b610a2681610c7a565b82525050565b610a3581610c7a565b82525050565b60006020820190508181036000830152610a558184610812565b905092915050565b60006020820190508181036000830152610a76816108f9565b9050919050565b6000602082019050610a926000830184610a2c565b92915050565b600061010082019050610aae600083018b610a2c565b610abb602083018a610803565b610ac86040830189610a2c565b8181036060830152610ada81886108c0565b90508181036080830152610aee81876108c0565b905081810360a0830152610b0281866108c0565b9050610b1160c0830185610a2c565b610b1e60e0830184610a2c565b9998505050505050505050565b6000604051905081810181811067ffffffffffffffff82111715610b5257610b51610d56565b5b8060405250919050565b600067ffffffffffffffff821115610b7757610b76610d56565b5b601f19601f8301169050602081019050919050565b6000819050602082019050919050565b600081519050919050565b600081519050919050565b6000602082019050919050565b600082825260208201905092915050565b600082825260208201905092915050565b600082825260208201905092915050565b6000610bfd82610c7a565b9150610c0883610c7a565b9250827fffffffffffffffffffffffffffffffffffffffffffffffffffffffffffffffff03821115610c3d57610c3c610cf8565b5b828201905092915050565b6000610c5382610c5a565b9050919050565b600073ffffffffffffffffffffffffffffffffffffffff82169050919050565b6000819050919050565b82818337600083830152505050565b60005b83811015610cb1578082015181840152602081019050610c96565b83811115610cc0576000848401525b50505050565b60006002820490506001821680610cde57607f821691505b60208210811415610cf257610cf1610d27565b5b50919050565b7f4e487b7100000000000000000000000000000000000000000000000000000000600052601160045260246000fd5b7f4e487b7100000000000000000000000000000000000000000000000000000000600052602260045260246000fd5b7f4e487b7100000000000000000000000000000000000000000000000000000000600052604160045260246000fd5b6000601f19601f8301169050919050565b610d9f81610c48565b8114610daa57600080fd5b5056fea2646970667358221220edc1b970eacd5178faec2fb8e564dfb963e5b67b62347b3db7450444368cde0764736f6c63430008000033",
  "linkReferences": {},
  "deployedLinkReferences": {}
}